{
  "contractName": "SimpleStorage",
  "abi": [
    {
      "constant": true,
      "inputs": [
        {
          "internalType": "address",
          "name": "",
          "type": "address"
        }
      ],
      "name": "customer_struct",
      "outputs": [
        {
          "internalType": "address",
          "name": "owner",
          "type": "address"
        },
        {
          "internalType": "string",
          "name": "name",
          "type": "string"
        },
        {
          "internalType": "string",
          "name": "password",
          "type": "string"
        }
      ],
      "payable": false,
      "stateMutability": "view",
      "type": "function"
    },
    {
      "constant": true,
      "inputs": [
        {
          "internalType": "address",
          "name": "",
          "type": "address"
        }
      ],
      "name": "distributer_struct",
      "outputs": [
        {
          "internalType": "address",
          "name": "owner",
          "type": "address"
        },
        {
          "internalType": "string",
          "name": "name",
          "type": "string"
        },
        {
          "internalType": "string",
          "name": "password",
          "type": "string"
        }
      ],
      "payable": false,
      "stateMutability": "view",
      "type": "function"
    },
    {
      "constant": true,
      "inputs": [
        {
          "internalType": "address",
          "name": "",
          "type": "address"
        }
      ],
      "name": "manufacturer_struct",
      "outputs": [
        {
          "internalType": "address",
          "name": "owner",
          "type": "address"
        },
        {
          "internalType": "string",
          "name": "name",
          "type": "string"
        },
        {
          "internalType": "string",
          "name": "password",
          "type": "string"
        }
      ],
      "payable": false,
      "stateMutability": "view",
      "type": "function"
    },
    {
      "constant": true,
      "inputs": [
        {
          "internalType": "address",
          "name": "",
          "type": "address"
        }
      ],
      "name": "pharmacy_struct",
      "outputs": [
        {
          "internalType": "address",
          "name": "owner",
          "type": "address"
        },
        {
          "internalType": "string",
          "name": "name",
          "type": "string"
        },
        {
          "internalType": "string",
          "name": "password",
          "type": "string"
        }
      ],
      "payable": false,
      "stateMutability": "view",
      "type": "function"
    },
    {
      "constant": false,
      "inputs": [
        {
          "internalType": "address",
          "name": "owner",
          "type": "address"
        },
        {
          "internalType": "string",
          "name": "name",
          "type": "string"
        },
        {
          "internalType": "string",
          "name": "password",
          "type": "string"
        }
      ],
      "name": "signup_pharmacy",
      "outputs": [],
      "payable": false,
      "stateMutability": "nonpayable",
      "type": "function"
    },
    {
      "constant": true,
      "inputs": [
        {
          "internalType": "address",
          "name": "ad",
          "type": "address"
        },
        {
          "internalType": "string",
          "name": "pwd",
          "type": "string"
        }
      ],
      "name": "pharmacy_login_validate",
      "outputs": [
        {
          "internalType": "uint256",
          "name": "",
          "type": "uint256"
        }
      ],
      "payable": false,
      "stateMutability": "view",
      "type": "function"
    },
    {
      "constant": false,
      "inputs": [
        {
          "internalType": "address",
          "name": "owner",
          "type": "address"
        },
        {
          "internalType": "string",
          "name": "name",
          "type": "string"
        },
        {
          "internalType": "string",
          "name": "password",
          "type": "string"
        }
      ],
      "name": "signup_manufacturer",
      "outputs": [],
      "payable": false,
      "stateMutability": "nonpayable",
      "type": "function"
    },
    {
      "constant": true,
      "inputs": [
        {
          "internalType": "address",
          "name": "ad",
          "type": "address"
        },
        {
          "internalType": "string",
          "name": "pwd",
          "type": "string"
        }
      ],
      "name": "manufacturer_login_validate",
      "outputs": [
        {
          "internalType": "uint256",
          "name": "",
          "type": "uint256"
        }
      ],
      "payable": false,
      "stateMutability": "view",
      "type": "function"
    },
    {
      "constant": false,
      "inputs": [
        {
          "internalType": "address",
          "name": "owner",
          "type": "address"
        },
        {
          "internalType": "string",
          "name": "name",
          "type": "string"
        },
        {
          "internalType": "string",
          "name": "password",
          "type": "string"
        }
      ],
      "name": "signup_distribuer",
      "outputs": [],
      "payable": false,
      "stateMutability": "nonpayable",
      "type": "function"
    },
    {
      "constant": true,
      "inputs": [
        {
          "internalType": "address",
          "name": "ad",
          "type": "address"
        },
        {
          "internalType": "string",
          "name": "pwd",
          "type": "string"
        }
      ],
      "name": "distributer_login_validate",
      "outputs": [
        {
          "internalType": "uint256",
          "name": "",
          "type": "uint256"
        }
      ],
      "payable": false,
      "stateMutability": "view",
      "type": "function"
    },
    {
      "constant": false,
      "inputs": [
        {
          "internalType": "address",
          "name": "owner",
          "type": "address"
        },
        {
          "internalType": "string",
          "name": "name",
          "type": "string"
        },
        {
          "internalType": "string",
          "name": "password",
          "type": "string"
        }
      ],
      "name": "signup_customer",
      "outputs": [],
      "payable": false,
      "stateMutability": "nonpayable",
      "type": "function"
    },
    {
      "constant": true,
      "inputs": [
        {
          "internalType": "address",
          "name": "ad",
          "type": "address"
        },
        {
          "internalType": "string",
          "name": "pwd",
          "type": "string"
        }
      ],
      "name": "customer_login_validate",
      "outputs": [
        {
          "internalType": "uint256",
          "name": "",
          "type": "uint256"
        }
      ],
      "payable": false,
      "stateMutability": "view",
      "type": "function"
    },
    {
      "constant": false,
      "inputs": [
        {
          "internalType": "string",
          "name": "data",
          "type": "string"
        }
      ],
      "name": "update_details",
      "outputs": [],
      "payable": false,
      "stateMutability": "nonpayable",
      "type": "function"
    },
    {
      "constant": true,
      "inputs": [],
      "name": "view_details",
      "outputs": [
        {
          "internalType": "string",
          "name": "",
          "type": "string"
        }
      ],
      "payable": false,
      "stateMutability": "view",
      "type": "function"
    },
    {
      "constant": true,
      "inputs": [
        {
          "internalType": "string",
          "name": "user_input",
          "type": "string"
        }
      ],
      "name": "drug_validate",
      "outputs": [
        {
          "internalType": "uint256",
          "name": "",
          "type": "uint256"
        }
      ],
      "payable": false,
      "stateMutability": "view",
      "type": "function"
    }
  ],
  "bytecode": "0x60806040526040518060400160405280600c81526020017f6d616e7566616374757265720000000000000000000000000000000000000000815250600990805190602001906200005192919062000066565b503480156200005f57600080fd5b5062000115565b828054600181600116156101000203166002900490600052602060002090601f016020900481019282601f10620000a957805160ff1916838001178555620000da565b82800160010185558215620000da579182015b82811115620000d9578251825591602001919060010190620000bc565b5b509050620000e99190620000ed565b5090565b6200011291905b808211156200010e576000816000905550600101620000f4565b5090565b90565b612ab480620001256000396000f3fe608060405234801561001057600080fd5b50600436106100f55760003560e01c8063a513601f11610097578063bc5b4a1211610066578063bc5b4a1214610edf578063d53906b714610f9a578063e6e5ce9e14611089578063e78d5c1314611178576100f5565b8063a513601f146109c6578063ac93f75b14610b38578063b7e49b2d14610c94578063b85ad3df14610df0576100f5565b806370987f4c116100d357806370987f4c1461049757806373ada892146105865780638845e55d146106f85780638bcf1b7414610854576100f5565b806309d76e95146100fa5780631bff43881461026c5780633355ee7b146103c8575b600080fd5b61026a6004803603606081101561011057600080fd5b81019080803573ffffffffffffffffffffffffffffffffffffffff1690602001909291908035906020019064010000000081111561014d57600080fd5b82018360208201111561015f57600080fd5b8035906020019184600183028401116401000000008311171561018157600080fd5b91908080601f016020809104026020016040519081016040528093929190818152602001838380828437600081840152601f19601f820116905080830192505050505050509192919290803590602001906401000000008111156101e457600080fd5b8201836020820111156101f657600080fd5b8035906020019184600183028401116401000000008311171561021857600080fd5b91908080601f016020809104026020016040519081016040528093929190818152602001838380828437600081840152601f19601f8201169050808301925050505050505091929192905050506111fb565b005b6102ae6004803603602081101561028257600080fd5b81019080803573ffffffffffffffffffffffffffffffffffffffff169060200190929190505050611478565b604051808473ffffffffffffffffffffffffffffffffffffffff1673ffffffffffffffffffffffffffffffffffffffff1681526020018060200180602001838103835285818151815260200191508051906020019080838360005b83811015610324578082015181840152602081019050610309565b50505050905090810190601f1680156103515780820380516001836020036101000a031916815260200191505b50838103825284818151815260200191508051906020019080838360005b8381101561038a57808201518184015260208101905061036f565b50505050905090810190601f1680156103b75780820380516001836020036101000a031916815260200191505b509550505050505060405180910390f35b610481600480360360208110156103de57600080fd5b81019080803590602001906401000000008111156103fb57600080fd5b82018360208201111561040d57600080fd5b8035906020019184600183028401116401000000008311171561042f57600080fd5b91908080601f016020809104026020016040519081016040528093929190818152602001838380828437600081840152601f19601f8201169050808301925050505050505091929192905050506115f2565b6040518082815260200191505060405180910390f35b610570600480360360408110156104ad57600080fd5b81019080803573ffffffffffffffffffffffffffffffffffffffff169060200190929190803590602001906401000000008111156104ea57600080fd5b8201836020820111156104fc57600080fd5b8035906020019184600183028401116401000000008311171561051e57600080fd5b91908080601f016020809104026020016040519081016040528093929190818152602001838380828437600081840152601f19601f8201169050808301925050505050505091929192905050506116fa565b6040518082815260200191505060405180910390f35b6106f66004803603606081101561059c57600080fd5b81019080803573ffffffffffffffffffffffffffffffffffffffff169060200190929190803590602001906401000000008111156105d957600080fd5b8201836020820111156105eb57600080fd5b8035906020019184600183028401116401000000008311171561060d57600080fd5b91908080601f016020809104026020016040519081016040528093929190818152602001838380828437600081840152601f19601f8201169050808301925050505050505091929192908035906020019064010000000081111561067057600080fd5b82018360208201111561068257600080fd5b803590602001918460018302840111640100000000831117156106a457600080fd5b91908080601f016020809104026020016040519081016040528093929190818152602001838380828437600081840152601f19601f820116905080830192505050505050509192919290505050611843565b005b61073a6004803603602081101561070e57600080fd5b81019080803573ffffffffffffffffffffffffffffffffffffffff169060200190929190505050611ac0565b604051808473ffffffffffffffffffffffffffffffffffffffff1673ffffffffffffffffffffffffffffffffffffffff1681526020018060200180602001838103835285818151815260200191508051906020019080838360005b838110156107b0578082015181840152602081019050610795565b50505050905090810190601f1680156107dd5780820380516001836020036101000a031916815260200191505b50838103825284818151815260200191508051906020019080838360005b838110156108165780820151818401526020810190506107fb565b50505050905090810190601f1680156108435780820380516001836020036101000a031916815260200191505b509550505050505060405180910390f35b6109c46004803603606081101561086a57600080fd5b81019080803573ffffffffffffffffffffffffffffffffffffffff169060200190929190803590602001906401000000008111156108a757600080fd5b8201836020820111156108b957600080fd5b803590602001918460018302840111640100000000831117156108db57600080fd5b91908080601f016020809104026020016040519081016040528093929190818152602001838380828437600081840152601f19601f8201169050808301925050505050505091929192908035906020019064010000000081111561093e57600080fd5b82018360208201111561095057600080fd5b8035906020019184600183028401116401000000008311171561097257600080fd5b91908080601f016020809104026020016040519081016040528093929190818152602001838380828437600081840152601f19601f820116905080830192505050505050509192919290505050611c3a565b005b610b36600480360360608110156109dc57600080fd5b81019080803573ffffffffffffffffffffffffffffffffffffffff16906020019092919080359060200190640100000000811115610a1957600080fd5b820183602082011115610a2b57600080fd5b80359060200191846001830284011164010000000083111715610a4d57600080fd5b91908080601f016020809104026020016040519081016040528093929190818152602001838380828437600081840152601f19601f82011690508083019250505050505050919291929080359060200190640100000000811115610ab057600080fd5b820183602082011115610ac257600080fd5b80359060200191846001830284011164010000000083111715610ae457600080fd5b91908080601f016020809104026020016040519081016040528093929190818152602001838380828437600081840152601f19601f820116905080830192505050505050509192919290505050611eb7565b005b610b7a60048036036020811015610b4e57600080fd5b81019080803573ffffffffffffffffffffffffffffffffffffffff169060200190929190505050612134565b604051808473ffffffffffffffffffffffffffffffffffffffff1673ffffffffffffffffffffffffffffffffffffffff1681526020018060200180602001838103835285818151815260200191508051906020019080838360005b83811015610bf0578082015181840152602081019050610bd5565b50505050905090810190601f168015610c1d5780820380516001836020036101000a031916815260200191505b50838103825284818151815260200191508051906020019080838360005b83811015610c56578082015181840152602081019050610c3b565b50505050905090810190601f168015610c835780820380516001836020036101000a031916815260200191505b509550505050505060405180910390f35b610cd660048036036020811015610caa57600080fd5b81019080803573ffffffffffffffffffffffffffffffffffffffff1690602001909291905050506122ae565b604051808473ffffffffffffffffffffffffffffffffffffffff1673ffffffffffffffffffffffffffffffffffffffff1681526020018060200180602001838103835285818151815260200191508051906020019080838360005b83811015610d4c578082015181840152602081019050610d31565b50505050905090810190601f168015610d795780820380516001836020036101000a031916815260200191505b50838103825284818151815260200191508051906020019080838360005b83811015610db2578082015181840152602081019050610d97565b50505050905090810190601f168015610ddf5780820380516001836020036101000a031916815260200191505b509550505050505060405180910390f35b610ec960048036036040811015610e0657600080fd5b81019080803573ffffffffffffffffffffffffffffffffffffffff16906020019092919080359060200190640100000000811115610e4357600080fd5b820183602082011115610e5557600080fd5b80359060200191846001830284011164010000000083111715610e7757600080fd5b91908080601f016020809104026020016040519081016040528093929190818152602001838380828437600081840152601f19601f820116905080830192505050505050509192919290505050612428565b6040518082815260200191505060405180910390f35b610f9860048036036020811015610ef557600080fd5b8101908080359060200190640100000000811115610f1257600080fd5b820183602082011115610f2457600080fd5b80359060200191846001830284011164010000000083111715610f4657600080fd5b91908080601f016020809104026020016040519081016040528093929190818152602001838380828437600081840152601f19601f820116905080830192505050505050509192919290505050612571565b005b61107360048036036040811015610fb057600080fd5b81019080803573ffffffffffffffffffffffffffffffffffffffff16906020019092919080359060200190640100000000811115610fed57600080fd5b820183602082011115610fff57600080fd5b8035906020019184600183028401116401000000008311171561102157600080fd5b91908080601f016020809104026020016040519081016040528093929190818152602001838380828437600081840152601f19601f82011690508083019250505050505050919291929050505061258b565b6040518082815260200191505060405180910390f35b6111626004803603604081101561109f57600080fd5b81019080803573ffffffffffffffffffffffffffffffffffffffff169060200190929190803590602001906401000000008111156110dc57600080fd5b8201836020820111156110ee57600080fd5b8035906020019184600183028401116401000000008311171561111057600080fd5b91908080601f016020809104026020016040519081016040528093929190818152602001838380828437600081840152601f19601f8201169050808301925050505050505091929192905050506126d4565b6040518082815260200191505060405180910390f35b61118061281d565b6040518080602001828103825283818151815260200191508051906020019080838360005b838110156111c05780820151818401526020810190506111a5565b50505050905090810190601f1680156111ed5780820380516001836020036101000a031916815260200191505b509250505060405180910390f35b806040516020018082805190602001908083835b60208310611232578051825260208201915060208101905060208303925061120f565b6001836020036101000a03801982511681845116808217855250505050505090500191505060405160208183030381529060405280519060200120600760008573ffffffffffffffffffffffffffffffffffffffff1673ffffffffffffffffffffffffffffffffffffffff168152602001908152602001600020600201604051602001808280546001816001161561010002031660029004801561130d5780601f106112eb57610100808354040283529182019161130d565b820191906000526020600020905b8154815290600101906020018083116112f9575b505091505060405160208183030381529060405280519060200120141561137f576040517f08c379a00000000000000000000000000000000000000000000000000000000081526004018080602001828103825260288152602001806129e56028913960400191505060405180910390fd5b60405180606001604052808473ffffffffffffffffffffffffffffffffffffffff16815260200183815260200182815250600760008573ffffffffffffffffffffffffffffffffffffffff1673ffffffffffffffffffffffffffffffffffffffff16815260200190815260200160002060008201518160000160006101000a81548173ffffffffffffffffffffffffffffffffffffffff021916908373ffffffffffffffffffffffffffffffffffffffff16021790555060208201518160010190805190602001906114529291906128bf565b50604082015181600201908051906020019061146f9291906128bf565b50905050505050565b60056020528060005260406000206000915090508060000160009054906101000a900473ffffffffffffffffffffffffffffffffffffffff1690806001018054600181600116156101000203166002900480601f01602080910402602001604051908101604052809291908181526020018280546001816001161561010002031660029004801561154a5780601f1061151f5761010080835404028352916020019161154a565b820191906000526020600020905b81548152906001019060200180831161152d57829003601f168201915b505050505090806002018054600181600116156101000203166002900480601f0160208091040260200160405190810160405280929190818152602001828054600181600116156101000203166002900480156115e85780601f106115bd576101008083540402835291602001916115e8565b820191906000526020600020905b8154815290600101906020018083116115cb57829003601f168201915b5050505050905083565b6000816040516020018082805190602001908083835b6020831061162b5780518252602082019150602081019050602083039250611608565b6001836020036101000a03801982511681845116808217855250505050505090500191505060405160208183030381529060405280519060200120600960405160200180828054600181600116156101000203166002900480156116c65780601f106116a45761010080835404028352918201916116c6565b820191906000526020600020905b8154815290600101906020018083116116b2575b50509150506040516020818303038152906040528051906020012014156116f057600190506116f5565b600090505b919050565b6000816040516020018082805190602001908083835b602083106117335780518252602082019150602081019050602083039250611710565b6001836020036101000a03801982511681845116808217855250505050505090500191505060405160208183030381529060405280519060200120600660008573ffffffffffffffffffffffffffffffffffffffff1673ffffffffffffffffffffffffffffffffffffffff168152602001908152602001600020600201604051602001808280546001816001161561010002031660029004801561180e5780601f106117ec57610100808354040283529182019161180e565b820191906000526020600020905b8154815290600101906020018083116117fa575b5050915050604051602081830303815290604052805190602001201415611838576001905061183d565b600090505b92915050565b806040516020018082805190602001908083835b6020831061187a5780518252602082019150602081019050602083039250611857565b6001836020036101000a03801982511681845116808217855250505050505090500191505060405160208183030381529060405280519060200120600660008573ffffffffffffffffffffffffffffffffffffffff1673ffffffffffffffffffffffffffffffffffffffff16815260200190815260200160002060020160405160200180828054600181600116156101000203166002900480156119555780601f10611933576101008083540402835291820191611955565b820191906000526020600020905b815481529060010190602001808311611941575b50509150506040516020818303038152906040528051906020012014156119c7576040517f08c379a0000000000000000000000000000000000000000000000000000000008152600401808060200182810382526029815260200180612a576029913960400191505060405180910390fd5b60405180606001604052808473ffffffffffffffffffffffffffffffffffffffff16815260200183815260200182815250600660008573ffffffffffffffffffffffffffffffffffffffff1673ffffffffffffffffffffffffffffffffffffffff16815260200190815260200160002060008201518160000160006101000a81548173ffffffffffffffffffffffffffffffffffffffff021916908373ffffffffffffffffffffffffffffffffffffffff1602179055506020820151816001019080519060200190611a9a9291906128bf565b506040820151816002019080519060200190611ab79291906128bf565b50905050505050565b60086020528060005260406000206000915090508060000160009054906101000a900473ffffffffffffffffffffffffffffffffffffffff1690806001018054600181600116156101000203166002900480601f016020809104026020016040519081016040528092919081815260200182805460018160011615610100020316600290048015611b925780601f10611b6757610100808354040283529160200191611b92565b820191906000526020600020905b815481529060010190602001808311611b7557829003601f168201915b505050505090806002018054600181600116156101000203166002900480601f016020809104026020016040519081016040528092919081815260200182805460018160011615610100020316600290048015611c305780601f10611c0557610100808354040283529160200191611c30565b820191906000526020600020905b815481529060010190602001808311611c1357829003601f168201915b5050505050905083565b806040516020018082805190602001908083835b60208310611c715780518252602082019150602081019050602083039250611c4e565b6001836020036101000a03801982511681845116808217855250505050505090500191505060405160208183030381529060405280519060200120600560008573ffffffffffffffffffffffffffffffffffffffff1673ffffffffffffffffffffffffffffffffffffffff1681526020019081526020016000206002016040516020018082805460018160011615610100020316600290048015611d4c5780601f10611d2a576101008083540402835291820191611d4c565b820191906000526020600020905b815481529060010190602001808311611d38575b5050915050604051602081830303815290604052805190602001201415611dbe576040517f08c379a0000000000000000000000000000000000000000000000000000000008152600401808060200182810382526025815260200180612a326025913960400191505060405180910390fd5b60405180606001604052808473ffffffffffffffffffffffffffffffffffffffff16815260200183815260200182815250600560008573ffffffffffffffffffffffffffffffffffffffff1673ffffffffffffffffffffffffffffffffffffffff16815260200190815260200160002060008201518160000160006101000a81548173ffffffffffffffffffffffffffffffffffffffff021916908373ffffffffffffffffffffffffffffffffffffffff1602179055506020820151816001019080519060200190611e919291906128bf565b506040820151816002019080519060200190611eae9291906128bf565b50905050505050565b806040516020018082805190602001908083835b60208310611eee5780518252602082019150602081019050602083039250611ecb565b6001836020036101000a03801982511681845116808217855250505050505090500191505060405160208183030381529060405280519060200120600860008573ffffffffffffffffffffffffffffffffffffffff1673ffffffffffffffffffffffffffffffffffffffff1681526020019081526020016000206002016040516020018082805460018160011615610100020316600290048015611fc95780601f10611fa7576101008083540402835291820191611fc9565b820191906000526020600020905b815481529060010190602001808311611fb5575b505091505060405160208183030381529060405280519060200120141561203b576040517f08c379a0000000000000000000000000000000000000000000000000000000008152600401808060200182810382526025815260200180612a0d6025913960400191505060405180910390fd5b60405180606001604052808473ffffffffffffffffffffffffffffffffffffffff16815260200183815260200182815250600860008573ffffffffffffffffffffffffffffffffffffffff1673ffffffffffffffffffffffffffffffffffffffff16815260200190815260200160002060008201518160000160006101000a81548173ffffffffffffffffffffffffffffffffffffffff021916908373ffffffffffffffffffffffffffffffffffffffff160217905550602082015181600101908051906020019061210e9291906128bf565b50604082015181600201908051906020019061212b9291906128bf565b50905050505050565b60066020528060005260406000206000915090508060000160009054906101000a900473ffffffffffffffffffffffffffffffffffffffff1690806001018054600181600116156101000203166002900480601f0160208091040260200160405190810160405280929190818152602001828054600181600116156101000203166002900480156122065780601f106121db57610100808354040283529160200191612206565b820191906000526020600020905b8154815290600101906020018083116121e957829003601f168201915b505050505090806002018054600181600116156101000203166002900480601f0160208091040260200160405190810160405280929190818152602001828054600181600116156101000203166002900480156122a45780601f10612279576101008083540402835291602001916122a4565b820191906000526020600020905b81548152906001019060200180831161228757829003601f168201915b5050505050905083565b60076020528060005260406000206000915090508060000160009054906101000a900473ffffffffffffffffffffffffffffffffffffffff1690806001018054600181600116156101000203166002900480601f0160208091040260200160405190810160405280929190818152602001828054600181600116156101000203166002900480156123805780601f1061235557610100808354040283529160200191612380565b820191906000526020600020905b81548152906001019060200180831161236357829003601f168201915b505050505090806002018054600181600116156101000203166002900480601f01602080910402602001604051908101604052809291908181526020018280546001816001161561010002031660029004801561241e5780601f106123f35761010080835404028352916020019161241e565b820191906000526020600020905b81548152906001019060200180831161240157829003601f168201915b5050505050905083565b6000816040516020018082805190602001908083835b60208310612461578051825260208201915060208101905060208303925061243e565b6001836020036101000a03801982511681845116808217855250505050505090500191505060405160208183030381529060405280519060200120600860008573ffffffffffffffffffffffffffffffffffffffff1673ffffffffffffffffffffffffffffffffffffffff168152602001908152602001600020600201604051602001808280546001816001161561010002031660029004801561253c5780601f1061251a57610100808354040283529182019161253c565b820191906000526020600020905b815481529060010190602001808311612528575b5050915050604051602081830303815290604052805190602001201415612566576001905061256b565b600090505b92915050565b806004908051906020019061258792919061293f565b5050565b6000816040516020018082805190602001908083835b602083106125c457805182526020820191506020810190506020830392506125a1565b6001836020036101000a03801982511681845116808217855250505050505090500191505060405160208183030381529060405280519060200120600760008573ffffffffffffffffffffffffffffffffffffffff1673ffffffffffffffffffffffffffffffffffffffff168152602001908152602001600020600201604051602001808280546001816001161561010002031660029004801561269f5780601f1061267d57610100808354040283529182019161269f565b820191906000526020600020905b81548152906001019060200180831161268b575b50509150506040516020818303038152906040528051906020012014156126c957600190506126ce565b600090505b92915050565b6000816040516020018082805190602001908083835b6020831061270d57805182526020820191506020810190506020830392506126ea565b6001836020036101000a03801982511681845116808217855250505050505090500191505060405160208183030381529060405280519060200120600560008573ffffffffffffffffffffffffffffffffffffffff1673ffffffffffffffffffffffffffffffffffffffff16815260200190815260200160002060020160405160200180828054600181600116156101000203166002900480156127e85780601f106127c65761010080835404028352918201916127e8565b820191906000526020600020905b8154815290600101906020018083116127d4575b50509150506040516020818303038152906040528051906020012014156128125760019050612817565b600090505b92915050565b606060048054600181600116156101000203166002900480601f0160208091040260200160405190810160405280929190818152602001828054600181600116156101000203166002900480156128b55780601f1061288a576101008083540402835291602001916128b5565b820191906000526020600020905b81548152906001019060200180831161289857829003601f168201915b5050505050905090565b828054600181600116156101000203166002900490600052602060002090601f016020900481019282601f1061290057805160ff191683800117855561292e565b8280016001018555821561292e579182015b8281111561292d578251825591602001919060010190612912565b5b50905061293b91906129bf565b5090565b828054600181600116156101000203166002900490600052602060002090601f016020900481019282601f1061298057805160ff19168380011785556129ae565b828001600101855582156129ae579182015b828111156129ad578251825591602001919060010190612992565b5b5090506129bb91906129bf565b5090565b6129e191905b808211156129dd5760008160009055506001016129c5565b5090565b9056fe796f752061726520616c7265616479207369676e6564207570206173206469737472696275746572796f752061726520616c7265616479207369676e656420757020617320637573746f6d6572796f752061726520616c7265616479207369676e656420757020617320706861726d616379796f752061726520616c7265616479207369676e6564207570206173206d616e756661637475726572a265627a7a72315820951a8dbd0b78c61bc100466055d7d7736c41876cf4db798c706d53829002fccb64736f6c634300050d0032",
  "source": "pragma solidity ^0.5.13;\n\ncontract SimpleStorage\n{\n\nstruct pharmacy \n{\n\n    address owner;\n    string name;\n    string password;\n\n\n}\nstruct manufacturer \n{\n\n    address owner;\n    string name;\n    string password;\n  \n\n}\nstruct distributer \n{\n\n    address owner;\n    string name;\n    string password;\n\n\n}\nstruct customer \n{\n\n    address owner;\n    string name;\n    string password;\n\n}\nstring pharmacys;\nstring manufacturers;\nstring distributers;\nstring customers;\nstring details;\n\n\n\n\nmapping(address => pharmacy) public pharmacy_struct;\nmapping(address => manufacturer) public manufacturer_struct;\nmapping(address => distributer) public distributer_struct;\nmapping(address => customer) public customer_struct;\n\n\nfunction signup_pharmacy (address owner,string memory name,string memory password) public \n\n{   \n    require (keccak256(abi.encodePacked(pharmacy_struct[owner].password )) != keccak256(abi.encodePacked(password)),\"you are already signed up as pharmacy\");\n    pharmacy_struct[owner] = pharmacy(owner,name,password);\n\n}\n\nfunction pharmacy_login_validate (address ad,string memory pwd) public view returns(uint)\n{\n    if (keccak256(abi.encodePacked(pharmacy_struct[ad].password )) == keccak256(abi.encodePacked(pwd)))\n    {\n    return 1;\n    }\n    else\n    {\n        return 0;\n    }\n}\n\nfunction signup_manufacturer (address owner,string memory name,string memory password) public \n\n{   \n    require (keccak256(abi.encodePacked(manufacturer_struct[owner].password )) != keccak256(abi.encodePacked(password)),\"you are already signed up as manufacturer\");\n    manufacturer_struct[owner] = manufacturer(owner,name,password);\n\n}\n\nfunction manufacturer_login_validate (address ad,string memory pwd) public view returns(uint)\n{\n    if (keccak256(abi.encodePacked(manufacturer_struct[ad].password )) == keccak256(abi.encodePacked(pwd)))\n    {\n    return 1;\n    }\n    else\n    {\n        return 0;\n    }\n}\n\nfunction signup_distribuer (address owner,string memory name,string memory password) public \n\n{   \n    require (keccak256(abi.encodePacked(distributer_struct[owner].password )) != keccak256(abi.encodePacked(password)),\"you are already signed up as distributer\");\n    distributer_struct[owner] = distributer(owner,name,password);\n\n}\n\nfunction distributer_login_validate (address ad,string memory pwd) public view returns(uint)\n{\n    if (keccak256(abi.encodePacked(distributer_struct[ad].password )) == keccak256(abi.encodePacked(pwd)))\n    {\n    return 1;\n    }\n    else\n    {\n        return 0;\n    }\n}\n\n\nfunction signup_customer (address owner,string memory name,string memory password) public \n\n{   \n    require (keccak256(abi.encodePacked(customer_struct[owner].password )) != keccak256(abi.encodePacked(password)),\"you are already signed up as customer\");\n    customer_struct[owner] = customer(owner,name,password);\n\n}\n\nfunction customer_login_validate (address ad,string memory pwd) public view returns(uint)\n{\n    if (keccak256(abi.encodePacked(customer_struct[ad].password )) == keccak256(abi.encodePacked(pwd)))\n    {\n    return 1;\n    }\n    else\n    {\n        return 0;\n    }\n}\n\n\nfunction update_details (string memory data) public \n{\n    details = data;\n\n}\n\nfunction view_details () public view returns(string memory)\n{\n\n    return (details);  \n\n}\nstring input_data=\"manufacturer\";\nfunction drug_validate (string memory user_input) public view returns(uint)\n\n{\n\n    if (keccak256(abi.encodePacked(input_data )) == keccak256(abi.encodePacked(user_input)))\n    {\n    return 1;\n    }\n    else\n    {\n        return 0;\n    }\n}\n\n\n}\n\n",
  "sourcePath": "F:/Anti-Counterfeit Medicine Tracking system using Blockchain/contracts/SimpleStorage.sol",
  "compiler": {
    "name": "solc",
    "version": "0.5.13+commit.5b0b510c.Emscripten.clang"
  },
  "schemaVersion": "3.0.20",
  "updatedAt": "2023-03-13T12:33:26.070Z",
  "networkType": "ethereum",
  "devdoc": {
    "methods": {}
  },
  "userdoc": {
    "methods": {}
  }
}